{
  "contractName": "Marketplace",
  "abi": [
    {
      "inputs": [],
      "payable": false,
      "stateMutability": "nonpayable",
      "type": "constructor"
    },
    {
      "anonymous": false,
      "inputs": [
        {
          "indexed": false,
          "internalType": "uint256",
          "name": "id",
          "type": "uint256"
        },
        {
          "indexed": false,
          "internalType": "string",
          "name": "name",
          "type": "string"
        },
        {
          "indexed": false,
          "internalType": "uint256",
          "name": "price",
          "type": "uint256"
        },
        {
          "indexed": false,
          "internalType": "address payable",
          "name": "owner",
          "type": "address"
        },
        {
          "indexed": false,
          "internalType": "bool",
          "name": "purchased",
          "type": "bool"
        }
      ],
      "name": "ProductCreated",
      "type": "event"
    },
    {
      "anonymous": false,
      "inputs": [
        {
          "indexed": false,
          "internalType": "uint256",
          "name": "id",
          "type": "uint256"
        },
        {
          "indexed": false,
          "internalType": "string",
          "name": "name",
          "type": "string"
        },
        {
          "indexed": false,
          "internalType": "uint256",
          "name": "price",
          "type": "uint256"
        },
        {
          "indexed": false,
          "internalType": "address payable",
          "name": "owner",
          "type": "address"
        },
        {
          "indexed": false,
          "internalType": "bool",
          "name": "purchased",
          "type": "bool"
        }
      ],
      "name": "ProductPurchase",
      "type": "event"
    },
    {
      "constant": true,
      "inputs": [],
      "name": "name",
      "outputs": [
        {
          "internalType": "string",
          "name": "",
          "type": "string"
        }
      ],
      "payable": false,
      "stateMutability": "view",
      "type": "function"
    },
    {
      "constant": true,
      "inputs": [],
      "name": "product_count",
      "outputs": [
        {
          "internalType": "uint256",
          "name": "",
          "type": "uint256"
        }
      ],
      "payable": false,
      "stateMutability": "view",
      "type": "function"
    },
    {
      "constant": true,
      "inputs": [
        {
          "internalType": "uint256",
          "name": "",
          "type": "uint256"
        }
      ],
      "name": "products",
      "outputs": [
        {
          "internalType": "uint256",
          "name": "id",
          "type": "uint256"
        },
        {
          "internalType": "string",
          "name": "name",
          "type": "string"
        },
        {
          "internalType": "uint256",
          "name": "price",
          "type": "uint256"
        },
        {
          "internalType": "address payable",
          "name": "owner",
          "type": "address"
        },
        {
          "internalType": "bool",
          "name": "purchased",
          "type": "bool"
        }
      ],
      "payable": false,
      "stateMutability": "view",
      "type": "function"
    },
    {
      "constant": false,
      "inputs": [
        {
          "internalType": "string",
          "name": "_name",
          "type": "string"
        },
        {
          "internalType": "uint256",
          "name": "_price",
          "type": "uint256"
        }
      ],
      "name": "createProduct",
      "outputs": [],
      "payable": false,
      "stateMutability": "nonpayable",
      "type": "function"
    },
    {
      "constant": false,
      "inputs": [
        {
          "internalType": "uint256",
          "name": "_id",
          "type": "uint256"
        }
      ],
      "name": "PurchaseProduct",
      "outputs": [],
      "payable": true,
      "stateMutability": "payable",
      "type": "function"
    }
  ],
  "bytecode": "0x608060405234801561001057600080fd5b506040518060400160405280601a81526020017f526f686974204d61726b657420706c6163652070726f647563740000000000008152506000908051906020019061005c929190610062565b50610107565b828054600181600116156101000203166002900490600052602060002090601f016020900481019282601f106100a357805160ff19168380011785556100d1565b828001600101855582156100d1579182015b828111156100d05782518255916020019190600101906100b5565b5b5090506100de91906100e2565b5090565b61010491905b808211156101005760008160009055506001016100e8565b5090565b90565b610beb806101166000396000f3fe60806040526004361061004a5760003560e01c806306fdde031461004f5780637acc0b20146100df578063963518cc146101df578063e77b59451461020a578063e9300c6c14610238575b600080fd5b34801561005b57600080fd5b5061006461030a565b6040518080602001828103825283818151815260200191508051906020019080838360005b838110156100a4578082015181840152602081019050610089565b50505050905090810190601f1680156100d15780820380516001836020036101000a031916815260200191505b509250505060405180910390f35b3480156100eb57600080fd5b506101186004803603602081101561010257600080fd5b81019080803590602001909291905050506103a8565b60405180868152602001806020018581526020018473ffffffffffffffffffffffffffffffffffffffff1673ffffffffffffffffffffffffffffffffffffffff16815260200183151515158152602001828103825286818151815260200191508051906020019080838360005b838110156101a0578082015181840152602081019050610185565b50505050905090810190601f1680156101cd5780820380516001836020036101000a031916815260200191505b50965050505050505060405180910390f35b3480156101eb57600080fd5b506101f46104a3565b6040518082815260200191505060405180910390f35b6102366004803603602081101561022057600080fd5b81019080803590602001909291905050506104a9565b005b34801561024457600080fd5b506103086004803603604081101561025b57600080fd5b810190808035906020019064010000000081111561027857600080fd5b82018360208201111561028a57600080fd5b803590602001918460018302840111640100000000831117156102ac57600080fd5b91908080601f016020809104026020016040519081016040528093929190818152602001838380828437600081840152601f19601f820116905080830192505050505050509192919290803590602001909291905050506108b8565b005b60008054600181600116156101000203166002900480601f0160208091040260200160405190810160405280929190818152602001828054600181600116156101000203166002900480156103a05780601f10610375576101008083540402835291602001916103a0565b820191906000526020600020905b81548152906001019060200180831161038357829003601f168201915b505050505081565b6002602052806000526040600020600091509050806000015490806001018054600181600116156101000203166002900480601f01602080910402602001604051908101604052809291908181526020018280546001816001161561010002031660029004801561045a5780601f1061042f5761010080835404028352916020019161045a565b820191906000526020600020905b81548152906001019060200180831161043d57829003601f168201915b5050505050908060020154908060030160009054906101000a900473ffffffffffffffffffffffffffffffffffffffff16908060030160149054906101000a900460ff16905085565b60015481565b6104b1610aca565b600260008381526020019081526020016000206040518060a001604052908160008201548152602001600182018054600181600116156101000203166002900480601f0160208091040260200160405190810160405280929190818152602001828054600181600116156101000203166002900480156105725780601f1061054757610100808354040283529160200191610572565b820191906000526020600020905b81548152906001019060200180831161055557829003601f168201915b50505050508152602001600282015481526020016003820160009054906101000a900473ffffffffffffffffffffffffffffffffffffffff1673ffffffffffffffffffffffffffffffffffffffff1673ffffffffffffffffffffffffffffffffffffffff1681526020016003820160149054906101000a900460ff16151515158152505090506000816060015190506000826000015111801561061b5750600154826000015111155b61062457600080fd5b816040015134101561063557600080fd5b81608001511561064457600080fd5b3373ffffffffffffffffffffffffffffffffffffffff168173ffffffffffffffffffffffffffffffffffffffff16141561067d57600080fd5b33826060019073ffffffffffffffffffffffffffffffffffffffff16908173ffffffffffffffffffffffffffffffffffffffff168152505060018260800190151590811515815250508160026000858152602001908152602001600020600082015181600001556020820151816001019080519060200190610700929190610b11565b506040820151816002015560608201518160030160006101000a81548173ffffffffffffffffffffffffffffffffffffffff021916908373ffffffffffffffffffffffffffffffffffffffff16021790555060808201518160030160146101000a81548160ff0219169083151502179055509050508073ffffffffffffffffffffffffffffffffffffffff166108fc349081150290604051600060405180830381858888f193505050501580156107bb573d6000803e3d6000fd5b507f828b623c9032ae129c4f3a8adf13aeac94536c4004ff5aa49d72a67287f006c46001548360200151846040015133600160405180868152602001806020018581526020018473ffffffffffffffffffffffffffffffffffffffff1673ffffffffffffffffffffffffffffffffffffffff16815260200183151515158152602001828103825286818151815260200191508051906020019080838360005b8381101561087557808201518184015260208101905061085a565b50505050905090810190601f1680156108a25780820380516001836020036101000a031916815260200191505b50965050505050505060405180910390a1505050565b60008251116108c657600080fd5b600081116108d357600080fd5b6001600081548092919060010191905055506040518060a0016040528060015481526020018381526020018281526020013373ffffffffffffffffffffffffffffffffffffffff16815260200160001515815250600260006001548152602001908152602001600020600082015181600001556020820151816001019080519060200190610962929190610b11565b506040820151816002015560608201518160030160006101000a81548173ffffffffffffffffffffffffffffffffffffffff021916908373ffffffffffffffffffffffffffffffffffffffff16021790555060808201518160030160146101000a81548160ff0219169083151502179055509050507fbc59c0c8165864dcceb377dd07d8f431d4303f8e501cb0a0374a10cc68d71836600154838333600060405180868152602001806020018581526020018473ffffffffffffffffffffffffffffffffffffffff1673ffffffffffffffffffffffffffffffffffffffff16815260200183151515158152602001828103825286818151815260200191508051906020019080838360005b83811015610a88578082015181840152602081019050610a6d565b50505050905090810190601f168015610ab55780820380516001836020036101000a031916815260200191505b50965050505050505060405180910390a15050565b6040518060a00160405280600081526020016060815260200160008152602001600073ffffffffffffffffffffffffffffffffffffffff1681526020016000151581525090565b828054600181600116156101000203166002900490600052602060002090601f016020900481019282601f10610b5257805160ff1916838001178555610b80565b82800160010185558215610b80579182015b82811115610b7f578251825591602001919060010190610b64565b5b509050610b8d9190610b91565b5090565b610bb391905b80821115610baf576000816000905550600101610b97565b5090565b9056fea265627a7a72315820909d1f3f3e4e213d2b67b827ee00178dffe80045efad3c3cff8f534ecd5bb9d164736f6c63430005100032",
  "source": "// SPDX-License-Identifier: MIT\r\npragma solidity >= 0.5.0 <0.9.0;\r\n\r\ncontract Marketplace {\r\n    \r\n    string public name;\r\n    uint public product_count;\r\n    mapping (uint => Product) public products;\r\n\r\n    struct Product {\r\n        uint id;\r\n        string name;\r\n        uint price;\r\n        address payable owner;\r\n        bool purchased;\r\n    }\r\n    event ProductCreated(\r\n        uint id,\r\n        string name,\r\n        uint price,\r\n        address payable owner,\r\n        bool purchased\r\n    );\r\n    event ProductPurchase(\r\n        uint id,\r\n        string name,\r\n        uint price,\r\n        address payable owner,\r\n        bool purchased\r\n    );\r\n\r\n    constructor() public {\r\n        name = \"Rohit Market place product\";\r\n    }\r\n\r\n    function createProduct(string memory _name, uint _price ) public {\r\n        // make sure parameter is correct\r\n        require(bytes(_name).length > 0);\r\n        require(_price > 0);\r\n        // increment product count \r\n        product_count ++;\r\n        //creat a product \r\n        products[product_count] = Product(product_count,_name , _price, msg.sender , false);\r\n        //trigger a event \r\n        emit ProductCreated(product_count, _name , _price, msg.sender , false);\r\n    }\r\n\r\n    function PurchaseProduct(uint _id) public payable {\r\n        //fetch product\r\n        Product memory _product = products[_id];\r\n        //featch owner\r\n        address  payable _seller = _product.owner;\r\n        //make sure product is valid\r\n        require(_product.id > 0  && _product.id <= product_count);\r\n        // product amount have a buyer have checked \r\n        require(msg.value >= _product.price);\r\n        //check the product dones not sell\r\n        require(!_product.purchased);\r\n        //check the buyer is not seller \r\n        require(_seller !=msg.sender);\r\n        // trasfer owneship to buyer    \r\n        _product.owner =  msg.sender;\r\n        //make sure product is valid\r\n        _product.purchased = true ;\r\n        //update the product\r\n        products[_id] = _product;\r\n        //pay ether to seller\r\n        address(_seller).transfer(msg.value);\r\n        //tigger event  \r\n        emit ProductPurchase(product_count, _product.name , _product.price, msg.sender , true);\r\n    }\r\n}",
  "sourcePath": "C:\\Users\\Rohit Patel\\Downloads\\SolidityProg\\marketplace\\src\\contracts\\marketplace.sol",
  "compiler": {
    "name": "solc",
    "version": "0.5.16+commit.9c3226ce.Emscripten.clang"
  },
  "schemaVersion": "3.4.6",
  "updatedAt": "2022-03-31T10:19:05.251Z",
  "networkType": "ethereum",
  "devdoc": {
    "methods": {}
  },
  "userdoc": {
    "methods": {}
  }
}